{
  "_format": "hh-sol-artifact-1",
  "contractName": "Tracking",
  "sourceName": "contracts/Tracking.sol",
  "abi": [
    {
      "inputs": [],
      "stateMutability": "nonpayable",
      "type": "constructor"
    },
    {
      "anonymous": false,
      "inputs": [
        {
          "indexed": true,
          "internalType": "address",
          "name": "sender",
          "type": "address"
        },
        {
          "indexed": true,
          "internalType": "address",
          "name": "receiver",
          "type": "address"
        },
        {
          "indexed": false,
          "internalType": "uint256",
          "name": "pickUpTime",
          "type": "uint256"
        },
        {
          "indexed": false,
          "internalType": "uint256",
          "name": "distance",
          "type": "uint256"
        },
        {
          "indexed": false,
          "internalType": "uint256",
          "name": "price",
          "type": "uint256"
        }
      ],
      "name": "ShipmentCreated",
      "type": "event"
    },
    {
      "anonymous": false,
      "inputs": [
        {
          "indexed": true,
          "internalType": "address",
          "name": "sender",
          "type": "address"
        },
        {
          "indexed": true,
          "internalType": "address",
          "name": "receiver",
          "type": "address"
        },
        {
          "indexed": false,
          "internalType": "uint256",
          "name": "deliveryTime",
          "type": "uint256"
        }
      ],
      "name": "ShipmentDelivered",
      "type": "event"
    },
    {
      "anonymous": false,
      "inputs": [
        {
          "indexed": true,
          "internalType": "address",
          "name": "sender",
          "type": "address"
        },
        {
          "indexed": true,
          "internalType": "address",
          "name": "receiver",
          "type": "address"
        },
        {
          "indexed": false,
          "internalType": "uint256",
          "name": "deliveryTime",
          "type": "uint256"
        }
      ],
      "name": "ShipmentInTransit",
      "type": "event"
    },
    {
      "anonymous": false,
      "inputs": [
        {
          "indexed": true,
          "internalType": "address",
          "name": "sender",
          "type": "address"
        },
        {
          "indexed": true,
          "internalType": "address",
          "name": "receiver",
          "type": "address"
        },
        {
          "indexed": false,
          "internalType": "uint256",
          "name": "amount",
          "type": "uint256"
        }
      ],
      "name": "ShipmentPaid",
      "type": "event"
    },
    {
      "inputs": [
        {
          "internalType": "address",
          "name": "_sender",
          "type": "address"
        },
        {
          "internalType": "address",
          "name": "_receiver",
          "type": "address"
        },
        {
          "internalType": "uint256",
          "name": "_index",
          "type": "uint256"
        }
      ],
      "name": "completeShipment",
      "outputs": [],
      "stateMutability": "nonpayable",
      "type": "function"
    },
    {
      "inputs": [
        {
          "internalType": "address",
          "name": "_receiver",
          "type": "address"
        },
        {
          "internalType": "uint256",
          "name": "_pickUpTime",
          "type": "uint256"
        },
        {
          "internalType": "uint256",
          "name": "_distance",
          "type": "uint256"
        },
        {
          "internalType": "uint256",
          "name": "_price",
          "type": "uint256"
        }
      ],
      "name": "createShipment",
      "outputs": [],
      "stateMutability": "payable",
      "type": "function"
    },
    {
      "inputs": [],
      "name": "getAllTransactions",
      "outputs": [
        {
          "components": [
            {
              "internalType": "address",
              "name": "sender",
              "type": "address"
            },
            {
              "internalType": "address",
              "name": "receiver",
              "type": "address"
            },
            {
              "internalType": "uint256",
              "name": "pickUpTime",
              "type": "uint256"
            },
            {
              "internalType": "uint256",
              "name": "deliveryTime",
              "type": "uint256"
            },
            {
              "internalType": "uint256",
              "name": "distance",
              "type": "uint256"
            },
            {
              "internalType": "uint256",
              "name": "price",
              "type": "uint256"
            },
            {
              "internalType": "enum Tracking.ShipmentStatus",
              "name": "status",
              "type": "uint8"
            },
            {
              "internalType": "bool",
              "name": "isPaid",
              "type": "bool"
            }
          ],
          "internalType": "struct Tracking.TypeShipment[]",
          "name": "",
          "type": "tuple[]"
        }
      ],
      "stateMutability": "view",
      "type": "function"
    },
    {
      "inputs": [
        {
          "internalType": "address",
          "name": "_sender",
          "type": "address"
        },
        {
          "internalType": "uint256",
          "name": "_index",
          "type": "uint256"
        }
      ],
      "name": "getShipment",
      "outputs": [
        {
          "internalType": "address",
          "name": "",
          "type": "address"
        },
        {
          "internalType": "address",
          "name": "",
          "type": "address"
        },
        {
          "internalType": "uint256",
          "name": "",
          "type": "uint256"
        },
        {
          "internalType": "uint256",
          "name": "",
          "type": "uint256"
        },
        {
          "internalType": "uint256",
          "name": "",
          "type": "uint256"
        },
        {
          "internalType": "enum Tracking.ShipmentStatus",
          "name": "",
          "type": "uint8"
        },
        {
          "internalType": "bool",
          "name": "",
          "type": "bool"
        }
      ],
      "stateMutability": "view",
      "type": "function"
    },
    {
      "inputs": [
        {
          "internalType": "address",
          "name": "_sender",
          "type": "address"
        }
      ],
      "name": "getShipmentCount",
      "outputs": [
        {
          "internalType": "uint256",
          "name": "",
          "type": "uint256"
        }
      ],
      "stateMutability": "view",
      "type": "function"
    },
    {
      "inputs": [],
      "name": "shipmentCount",
      "outputs": [
        {
          "internalType": "uint256",
          "name": "",
          "type": "uint256"
        }
      ],
      "stateMutability": "view",
      "type": "function"
    },
    {
      "inputs": [
        {
          "internalType": "address",
          "name": "",
          "type": "address"
        },
        {
          "internalType": "uint256",
          "name": "",
          "type": "uint256"
        }
      ],
      "name": "shipments",
      "outputs": [
        {
          "internalType": "address",
          "name": "sender",
          "type": "address"
        },
        {
          "internalType": "address",
          "name": "receiver",
          "type": "address"
        },
        {
          "internalType": "uint256",
          "name": "pickUpTime",
          "type": "uint256"
        },
        {
          "internalType": "uint256",
          "name": "deliveryTime",
          "type": "uint256"
        },
        {
          "internalType": "uint256",
          "name": "distance",
          "type": "uint256"
        },
        {
          "internalType": "uint256",
          "name": "price",
          "type": "uint256"
        },
        {
          "internalType": "enum Tracking.ShipmentStatus",
          "name": "status",
          "type": "uint8"
        },
        {
          "internalType": "bool",
          "name": "isPaid",
          "type": "bool"
        }
      ],
      "stateMutability": "view",
      "type": "function"
    },
    {
      "inputs": [
        {
          "internalType": "address",
          "name": "_sender",
          "type": "address"
        },
        {
          "internalType": "address",
          "name": "_receiver",
          "type": "address"
        },
        {
          "internalType": "uint256",
          "name": "_index",
          "type": "uint256"
        }
      ],
      "name": "startShipment",
      "outputs": [],
      "stateMutability": "nonpayable",
      "type": "function"
    },
    {
      "inputs": [
        {
          "internalType": "uint256",
          "name": "",
          "type": "uint256"
        }
      ],
      "name": "typeShipments",
      "outputs": [
        {
          "internalType": "address",
          "name": "sender",
          "type": "address"
        },
        {
          "internalType": "address",
          "name": "receiver",
          "type": "address"
        },
        {
          "internalType": "uint256",
          "name": "pickUpTime",
          "type": "uint256"
        },
        {
          "internalType": "uint256",
          "name": "deliveryTime",
          "type": "uint256"
        },
        {
          "internalType": "uint256",
          "name": "distance",
          "type": "uint256"
        },
        {
          "internalType": "uint256",
          "name": "price",
          "type": "uint256"
        },
        {
          "internalType": "enum Tracking.ShipmentStatus",
          "name": "status",
          "type": "uint8"
        },
        {
          "internalType": "bool",
          "name": "isPaid",
          "type": "bool"
        }
      ],
      "stateMutability": "view",
      "type": "function"
    }
  ],
  "bytecode": "0x608060405234801561001057600080fd5b506000600181905550611ab3806100286000396000f3fe6080604052600436106100865760003560e01c80638365da54116100595780638365da541461014c578063aace20b71461018f578063b7dfd93d146101ba578063cbc4b181146101f7578063faaff70e1461021357610086565b8063179a878c1461008b57806327506f53146100b45780635667e02f146100df5780637ff5265d14610123575b600080fd5b34801561009757600080fd5b506100b260048036038101906100ad91906112b7565b610257565b005b3480156100c057600080fd5b506100c961062b565b6040516100d6919061150c565b60405180910390f35b3480156100eb57600080fd5b506101066004803603810190610101919061152e565b6107b5565b60405161011a9897969594939291906115aa565b60405180910390f35b34801561012f57600080fd5b5061014a600480360381019061014591906112b7565b610874565b005b34801561015857600080fd5b50610173600480360381019061016e919061152e565b610ad0565b6040516101869796959493929190611628565b60405180910390f35b34801561019b57600080fd5b506101a4610cb0565b6040516101b19190611697565b60405180910390f35b3480156101c657600080fd5b506101e160048036038101906101dc91906116b2565b610cb6565b6040516101ee9190611697565b60405180910390f35b610211600480360381019061020c91906116df565b610d01565b005b34801561021f57600080fd5b5061023a60048036038101906102359190611746565b61116c565b60405161024e9897969594939291906115aa565b60405180910390f35b60008060008573ffffffffffffffffffffffffffffffffffffffff1673ffffffffffffffffffffffffffffffffffffffff16815260200190815260200160002082815481106102a9576102a8611773565b5b906000526020600020906007020190506000600283815481106102cf576102ce611773565b5b906000526020600020906007020190508373ffffffffffffffffffffffffffffffffffffffff168260010160009054906101000a900473ffffffffffffffffffffffffffffffffffffffff1673ffffffffffffffffffffffffffffffffffffffff1614610371576040517f08c379a0000000000000000000000000000000000000000000000000000000008152600401610368906117ff565b60405180910390fd5b6001600281111561038557610384611354565b5b8260060160009054906101000a900460ff1660028111156103a9576103a8611354565b5b146103e9576040517f08c379a00000000000000000000000000000000000000000000000000000000081526004016103e09061186b565b60405180910390fd5b8160060160019054906101000a900460ff161561043b576040517f08c379a0000000000000000000000000000000000000000000000000000000008152600401610432906118d7565b60405180910390fd5b60028260060160006101000a81548160ff0219169083600281111561046357610462611354565b5b021790555060028160060160006101000a81548160ff021916908360028111156104905761048f611354565b5b02179055504281600301819055504282600301819055506000826005015490508260000160009054906101000a900473ffffffffffffffffffffffffffffffffffffffff1673ffffffffffffffffffffffffffffffffffffffff166108fc829081150290604051600060405180830381858888f1935050505015801561051a573d6000803e3d6000fd5b5060018360060160016101000a81548160ff02191690831515021790555060018260060160016101000a81548160ff0219169083151502179055508473ffffffffffffffffffffffffffffffffffffffff168673ffffffffffffffffffffffffffffffffffffffff167f3746ccceb54f44c9b0ee0120e596168d07ec9f6ca303cfdd9810d3b2e2686a2e85600301546040516105b69190611697565b60405180910390a38473ffffffffffffffffffffffffffffffffffffffff168673ffffffffffffffffffffffffffffffffffffffff167f2b6f2473aebafaf8d0889669490135928ec4454d2e29a103fd39693bbca6aef18360405161061b9190611697565b60405180910390a3505050505050565b60606002805480602002602001604051908101604052809291908181526020016000905b828210156107ac5783829060005260206000209060070201604051806101000160405290816000820160009054906101000a900473ffffffffffffffffffffffffffffffffffffffff1673ffffffffffffffffffffffffffffffffffffffff1673ffffffffffffffffffffffffffffffffffffffff1681526020016001820160009054906101000a900473ffffffffffffffffffffffffffffffffffffffff1673ffffffffffffffffffffffffffffffffffffffff1673ffffffffffffffffffffffffffffffffffffffff168152602001600282015481526020016003820154815260200160048201548152602001600582015481526020016006820160009054906101000a900460ff16600281111561076c5761076b611354565b5b600281111561077e5761077d611354565b5b81526020016006820160019054906101000a900460ff1615151515815250508152602001906001019061064f565b50505050905090565b600060205281600052604060002081815481106107d157600080fd5b9060005260206000209060070201600091509150508060000160009054906101000a900473ffffffffffffffffffffffffffffffffffffffff16908060010160009054906101000a900473ffffffffffffffffffffffffffffffffffffffff16908060020154908060030154908060040154908060050154908060060160009054906101000a900460ff16908060060160019054906101000a900460ff16905088565b60008060008573ffffffffffffffffffffffffffffffffffffffff1673ffffffffffffffffffffffffffffffffffffffff16815260200190815260200160002082815481106108c6576108c5611773565b5b906000526020600020906007020190506000600283815481106108ec576108eb611773565b5b906000526020600020906007020190508373ffffffffffffffffffffffffffffffffffffffff168260010160009054906101000a900473ffffffffffffffffffffffffffffffffffffffff1673ffffffffffffffffffffffffffffffffffffffff161461098e576040517f08c379a0000000000000000000000000000000000000000000000000000000008152600401610985906117ff565b60405180910390fd5b600060028111156109a2576109a1611354565b5b8260060160009054906101000a900460ff1660028111156109c6576109c5611354565b5b14610a06576040517f08c379a00000000000000000000000000000000000000000000000000000000081526004016109fd90611943565b60405180910390fd5b60018260060160006101000a81548160ff02191690836002811115610a2e57610a2d611354565b5b021790555060018160060160006101000a81548160ff02191690836002811115610a5b57610a5a611354565b5b02179055508373ffffffffffffffffffffffffffffffffffffffff168573ffffffffffffffffffffffffffffffffffffffff167faafab9f94340179ff9cefd29621e1772a4b8efab8023163838f1b0a8f6ce5df58460020154604051610ac19190611697565b60405180910390a35050505050565b6000806000806000806000806000808b73ffffffffffffffffffffffffffffffffffffffff1673ffffffffffffffffffffffffffffffffffffffff1681526020019081526020016000208981548110610b2c57610b2b611773565b5b9060005260206000209060070201604051806101000160405290816000820160009054906101000a900473ffffffffffffffffffffffffffffffffffffffff1673ffffffffffffffffffffffffffffffffffffffff1673ffffffffffffffffffffffffffffffffffffffff1681526020016001820160009054906101000a900473ffffffffffffffffffffffffffffffffffffffff1673ffffffffffffffffffffffffffffffffffffffff1673ffffffffffffffffffffffffffffffffffffffff168152602001600282015481526020016003820154815260200160048201548152602001600582015481526020016006820160009054906101000a900460ff166002811115610c3f57610c3e611354565b5b6002811115610c5157610c50611354565b5b81526020016006820160019054906101000a900460ff1615151515815250509050806000015181602001518260400151836060015184608001518560c001518660e0015197509750975097509750975097505092959891949750929550565b60015481565b60008060008373ffffffffffffffffffffffffffffffffffffffff1673ffffffffffffffffffffffffffffffffffffffff168152602001908152602001600020805490509050919050565b803414610d43576040517f08c379a0000000000000000000000000000000000000000000000000000000008152600401610d3a906119af565b60405180910390fd5b60006040518061010001604052803373ffffffffffffffffffffffffffffffffffffffff1681526020018673ffffffffffffffffffffffffffffffffffffffff1681526020018581526020016000815260200184815260200183815260200160006002811115610db657610db5611354565b5b81526020016000151581525090506000803373ffffffffffffffffffffffffffffffffffffffff1673ffffffffffffffffffffffffffffffffffffffff16815260200190815260200160002081908060018154018082558091505060019003906000526020600020906007020160009091909190915060008201518160000160006101000a81548173ffffffffffffffffffffffffffffffffffffffff021916908373ffffffffffffffffffffffffffffffffffffffff16021790555060208201518160010160006101000a81548173ffffffffffffffffffffffffffffffffffffffff021916908373ffffffffffffffffffffffffffffffffffffffff16021790555060408201518160020155606082015181600301556080820151816004015560a0820151816005015560c08201518160060160006101000a81548160ff02191690836002811115610f0d57610f0c611354565b5b021790555060e08201518160060160016101000a81548160ff021916908315150217905550505060016000815480929190610f47906119fe565b919050555060026040518061010001604052803373ffffffffffffffffffffffffffffffffffffffff1681526020018773ffffffffffffffffffffffffffffffffffffffff1681526020018681526020016000815260200185815260200184815260200160006002811115610fbf57610fbe611354565b5b815260200160001515815250908060018154018082558091505060019003906000526020600020906007020160009091909190915060008201518160000160006101000a81548173ffffffffffffffffffffffffffffffffffffffff021916908373ffffffffffffffffffffffffffffffffffffffff16021790555060208201518160010160006101000a81548173ffffffffffffffffffffffffffffffffffffffff021916908373ffffffffffffffffffffffffffffffffffffffff16021790555060408201518160020155606082015181600301556080820151816004015560a0820151816005015560c08201518160060160006101000a81548160ff021916908360028111156110d5576110d4611354565b5b021790555060e08201518160060160016101000a81548160ff02191690831515021790555050508473ffffffffffffffffffffffffffffffffffffffff163373ffffffffffffffffffffffffffffffffffffffff167f5001b34ecf2db5b7bbeddcbbe761ec9ecadcc7638018b98ce3e24995b0e946b686868660405161115d93929190611a46565b60405180910390a35050505050565b6002818154811061117c57600080fd5b90600052602060002090600702016000915090508060000160009054906101000a900473ffffffffffffffffffffffffffffffffffffffff16908060010160009054906101000a900473ffffffffffffffffffffffffffffffffffffffff16908060020154908060030154908060040154908060050154908060060160009054906101000a900460ff16908060060160019054906101000a900460ff16905088565b600080fd5b600073ffffffffffffffffffffffffffffffffffffffff82169050919050565b600061124e82611223565b9050919050565b61125e81611243565b811461126957600080fd5b50565b60008135905061127b81611255565b92915050565b6000819050919050565b61129481611281565b811461129f57600080fd5b50565b6000813590506112b18161128b565b92915050565b6000806000606084860312156112d0576112cf61121e565b5b60006112de8682870161126c565b93505060206112ef8682870161126c565b9250506040611300868287016112a2565b9150509250925092565b600081519050919050565b600082825260208201905092915050565b6000819050602082019050919050565b61133f81611243565b82525050565b61134e81611281565b82525050565b7f4e487b7100000000000000000000000000000000000000000000000000000000600052602160045260246000fd5b6003811061139457611393611354565b5b50565b60008190506113a582611383565b919050565b60006113b582611397565b9050919050565b6113c5816113aa565b82525050565b60008115159050919050565b6113e0816113cb565b82525050565b610100820160008201516113fd6000850182611336565b5060208201516114106020850182611336565b5060408201516114236040850182611345565b5060608201516114366060850182611345565b5060808201516114496080850182611345565b5060a082015161145c60a0850182611345565b5060c082015161146f60c08501826113bc565b5060e082015161148260e08501826113d7565b50505050565b600061149483836113e6565b6101008301905092915050565b6000602082019050919050565b60006114b98261130a565b6114c38185611315565b93506114ce83611326565b8060005b838110156114ff5781516114e68882611488565b97506114f1836114a1565b9250506001810190506114d2565b5085935050505092915050565b6000602082019050818103600083015261152681846114ae565b905092915050565b600080604083850312156115455761154461121e565b5b60006115538582860161126c565b9250506020611564858286016112a2565b9150509250929050565b61157781611243565b82525050565b61158681611281565b82525050565b611595816113aa565b82525050565b6115a4816113cb565b82525050565b6000610100820190506115c0600083018b61156e565b6115cd602083018a61156e565b6115da604083018961157d565b6115e7606083018861157d565b6115f4608083018761157d565b61160160a083018661157d565b61160e60c083018561158c565b61161b60e083018461159b565b9998505050505050505050565b600060e08201905061163d600083018a61156e565b61164a602083018961156e565b611657604083018861157d565b611664606083018761157d565b611671608083018661157d565b61167e60a083018561158c565b61168b60c083018461159b565b98975050505050505050565b60006020820190506116ac600083018461157d565b92915050565b6000602082840312156116c8576116c761121e565b5b60006116d68482850161126c565b91505092915050565b600080600080608085870312156116f9576116f861121e565b5b60006117078782880161126c565b9450506020611718878288016112a2565b9350506040611729878288016112a2565b925050606061173a878288016112a2565b91505092959194509250565b60006020828403121561175c5761175b61121e565b5b600061176a848285016112a2565b91505092915050565b7f4e487b7100000000000000000000000000000000000000000000000000000000600052603260045260246000fd5b600082825260208201905092915050565b7f496e76616c696420726563656976657200000000000000000000000000000000600082015250565b60006117e96010836117a2565b91506117f4826117b3565b602082019050919050565b60006020820190508181036000830152611818816117dc565b9050919050565b7f536869706d656e74206e6f7420696e207472616e736974000000000000000000600082015250565b60006118556017836117a2565b91506118608261181f565b602082019050919050565b6000602082019050818103600083015261188481611848565b9050919050565b7f536869706d656e7420616c726561647920706169640000000000000000000000600082015250565b60006118c16015836117a2565b91506118cc8261188b565b602082019050919050565b600060208201905081810360008301526118f0816118b4565b9050919050565b7f536869706d656e7420616c726561647920696e207472616e7369740000000000600082015250565b600061192d601b836117a2565b9150611938826118f7565b602082019050919050565b6000602082019050818103600083015261195c81611920565b9050919050565b7f5061796d656e74206d757374206d617463682074686520707269636500000000600082015250565b6000611999601c836117a2565b91506119a482611963565b602082019050919050565b600060208201905081810360008301526119c88161198c565b9050919050565b7f4e487b7100000000000000000000000000000000000000000000000000000000600052601160045260246000fd5b6000611a0982611281565b91507fffffffffffffffffffffffffffffffffffffffffffffffffffffffffffffffff8203611a3b57611a3a6119cf565b5b600182019050919050565b6000606082019050611a5b600083018661157d565b611a68602083018561157d565b611a75604083018461157d565b94935050505056fea26469706673582212203768e0dda4631201fc60bc9083389d57360712415a1002f86502da483ec20cb764736f6c63430008120033",
  "linkReferences": {},
  "deployedLinkReferences": {}
}